:020000040800F2
:1000000000300020B9520008B5050008B705000807
:10001000B9050008BB050008BD0500080000000088
:10002000000000000000000000000000514A00082D
:10003000BF05000800000000F14A0008554B000809
:100040000953000809530008095300080953000820
:100050000953000809530008095300080953000810
:10006000095300080953000809530008C105000896
:1000700009530008095300080953000809530008F0
:100080000953000809530008D10500080953000866
:1000900009530008095300080953000809530008D0
:1000A00009530008095300080953000809530008C0
:1000B000E1050008F10500080000000009530008F0
:1000C0000953000800000000000000000953000868
:1000D00000000000095300080953000809530008F4
:1000E0000953000809530008000000000000000048
:1000F0000000000000000000000000000000000000
:1001000000000000000000000000000000000000EF
:100110000000000000000000095300080953000817
:1001200000000000000000000000000000000000CF
:1001300000000000000000000000000000000000BF
:100140000953000809530008000000000953000883
:10015000095300080953000809530008095300080F
:1001600009530008095300080000000000000000C7
:10017000000000000000000000000000000000007F
:08018000000000000953000813
:10019000830730B547D0541E002A3ED0CAB203466A
:1001A00001E0013C39D303F8012B9D07F9D1032C61
:1001B0002CD9CDB205EB05250F2C05EB054535D91E
:1001C000A4F1100222F00F0C03F1100EE6444FEAE6
:1001D000121C1A46156055609560D5601032724544
:1001E000F8D10CF1010214F00C0F03EB021204F031
:1001F0000F0C13D0ACF1040323F0030304331344B6
:1002000042F8045B9A42FBD10CF003042CB1C9B252
:100210001C4403F8011B9C42FBD130BD64461346CD
:10022000002CF4D1F9E703461446C0E71A46A44669
:10023000E0E700BF70B50F4B0F4DAB42A3EB0506D7
:1002400007D0B610002455F8043B01349847A64265
:10025000F9D805F05BF8094D094B5E1BAB424FEA3C
:10026000A60606D0002455F8043B01349847A64260
:10027000F9D870BDA8530008A8530008A853000877
:10028000AC530008844641EA000313F003036DD128
:10029000403A41D351F8043B40F8043B51F8043B49
:1002A00040F8043B51F8043B40F8043B51F8043B50
:1002B00040F8043B51F8043B40F8043B51F8043B40
:1002C00040F8043B51F8043B40F8043B51F8043B30
:1002D00040F8043B51F8043B40F8043B51F8043B20
:1002E00040F8043B51F8043B40F8043B51F8043B10
:1002F00040F8043B51F8043B40F8043B51F8043B00
:1003000040F8043B51F8043B40F8043B51F8043BEF
:1003100040F8043B403ABDD2303211D351F8043B8F
:1003200040F8043B51F8043B40F8043B51F8043BCF
:1003300040F8043B51F8043B40F8043B103AEDD23E
:100340000C3205D351F8043B40F8043B043AF9D28F
:10035000043208D0D2071CBF11F8013B00F8013B62
:1003600001D30B8803806046704700BF082A13D36F
:100370008B078DD010F003038AD0C3F10403D21A87
:10038000DB071CBF11F8013B00F8013B80D331F8BB
:10039000023B20F8023B7BE7043AD9D3013A11F83B
:1003A000013B00F8013BF9D20B7803704B784370A6
:1003B0008B7883706046704710B5054C237833B94D
:1003C000044B13B10448AFF300800123237010BD28
:1003D00028000020000000000C53000808B5034B63
:1003E0001BB103490348AFF3008008BD00000000C3
:1003F0002C0000200C53000810B504460268074B7F
:100400009A4204D02368B3F1804F03D010BD02F0AC
:1004100071FBF7E700F0A0FBF8E700BF0004004025
:1004200072B6FEE700B597B0282200210CA8FFF7AE
:10043000AFFE00230793089309930A930B9300934D
:1004400001930293039304930593069301220C9264
:100450004FF480330D9310920222139214934FF4B1
:10046000801315930CA800F089FBD8B90F230793CC
:1004700002210891002309934FF480620A920B93A2
:1004800007A800F0C3FE78B98123009300230293EC
:100490004FF498730493684600F0DCFF30B917B04E
:1004A0005DF804FBFFF7BCFFFFF7BAFFFFF7B8FFEB
:1004B00008B500F03FFBFFF7B5FF00F01BF801F0B7
:1004C0007DFB01F0CFFA02F077FC04F027FC04F08A
:1004D00099FE482002F0A2FB02F0C0FA044800F0A6
:1004E000DFF804F04BF802F057FC04F069F8FEE77F
:1004F000A81B002070B588B00024039404940594D0
:1005000006940794294B5A6942F480025A615A6949
:1005100002F480020092009A5A6942F400325A6151
:100520005A6902F400320192019A5A6942F4802217
:100530005A615B6903F480230293029B2246802167
:100540004FF0904001F036F9194E22464FF44041E9
:10055000304601F02FF901224FF440714FF09040E6
:1005600001F028F9802303930125049502230593C4
:10057000069403A94FF0904001F03EF84FF4404339
:10058000039304950594069403A9304601F034F8CA
:100590004FF44073039304950595069403A94FF017
:1005A000904001F029F808B070BD00BF0010024073
:1005B00000040048FEE7FEE7FEE7FEE7FEE77047BF
:1005C00008B5024801F086F908BD00BF48000020C8
:1005D00008B5024801F082FD08BD00BF8C00002074
:1005E00008B5024800F09AF808BD00BF8C01002051
:1005F00008B5024800F092F808BD00BFA81B002013
:1006000000B583B00D4B9A6942F001029A619A6974
:1006100002F001020092009ADA6942F08052DA6137
:10062000DB6903F080530193019B00220F216FF0DF
:10063000010001F0EFF903B05DF804FB0010024087
:1006400010B4036A046A24F001040462846924F08B
:10065000F00C4CEA021223F00A030B43826103629E
:100660005DF8044B704710B4036A046A24F0100468
:100670000462846924F4704C4CEA023223F0A00333
:1006800043EA0113826103625DF8044B704783689B
:1006900023F070030B4343F00703836070470000AF
:1006A00090F83D30DBB2012B2AD1022380F83D3097
:1006B0000268D36843F00103D3600368134A93428E
:1006C00010D0B3F1804F0DD0A2F59432934209D0EF
:1006D00002F59E32934205D01A6842F001021A6078
:1006E0000020704799680A4A0A40062A0AD0B2F5E3
:1006F000803F09D01A6842F001021A60002070475A
:10070000012070470020704700207047002C0140F6
:1007100007000100704770477047704770B5044686
:100720000368DE681D6915F0020F10D016F0020F85
:100730000DD06FF002021A610123037703689B69F1
:1007400013F0030F64D0FFF7E6FF0023237715F0C3
:10075000040F12D016F0040F0FD023686FF00402BC
:100760001A610223237723689B6913F4407F55D0D5
:100770002046FFF7D0FF0023237715F0080F12D093
:1007800016F0080F0FD023686FF008021A610423D7
:1007900023772368DB6913F0030F46D02046FFF769
:1007A000BAFF0023237715F0100F12D016F0100FA8
:1007B0000FD023686FF010021A6108232377236893
:1007C000DB6913F4407F37D02046FFF7A4FF0023F6
:1007D000237715F0010F02D016F0010F33D115F079
:1007E000800F02D016F0800F35D115F4807F02D033
:1007F00016F0800F37D115F0400F02D016F0400FE1
:1008000039D115F0200F02D016F0200F3BD170BD6A
:10081000FFF780FF2046FFF77FFF96E72046FFF7B0
:1008200079FF2046FFF778FFA5E72046FFF772FF24
:100830002046FFF771FFB4E72046FFF76BFF204625
:10084000FFF76AFFC3E723686FF001021A612046D1
:10085000FFF7D2FDC3E723686FF080021A612046DC
:1008600000F065F9C1E723686FF480721A612046D1
:1008700000F05EF9BFE723686FF040021A6120467E
:10088000FFF74BFFBDE723686FF020021A61204697
:1008900000F04CF9BBE700000368264A904206D0FE
:1008A000B0F1804F03D0A2F59432904203D123F0EF
:1008B00070034A6813431F4A904212D0B0F1804F30
:1008C0000FD0A2F5943290420BD002F59E329042A6
:1008D00007D002F58062904203D002F58062904218
:1008E00003D123F44073CA68134323F080034A6999
:1008F000134303608B68C3620B6883620D4B98429D
:100900000BD003F5A053984207D003F580639842BB
:1009100003D003F58063984201D10B69036301237F
:100920004361036913F0010F03D0036923F001034E
:1009300003617047002C014060B310B5044690F885
:100940003D3013B3022384F83D30214651F8040BA7
:10095000FFF7A2FF012384F8483084F83E3084F882
:100960003F3084F8403084F8413084F8423084F8D5
:10097000433084F8443084F8453084F8463084F8B5
:10098000473084F83D30002010BD80F83C3004F042
:1009900073FCD7E70120704710B4846824F47F4CBF
:1009A00042EA03220A4342EA0C0282605DF8044BE9
:1009B0007047000090F83C30012B76D010B504460B
:1009C000012380F83C30022380F83D3002689068B3
:1009D000374B034093600B68602B4CD029D8402BD9
:1009E00054D00CD9502B22D1CA6849682068FFF72F
:1009F00027FE50212068FFF74AFE002005E0202B4B
:100A00000DD009D9302B0AD00120012384F83D30C4
:100A1000002384F83C3010BD0BB1102B05D11946D2
:100A20002068FFF734FE0020EFE70120EDE701200A
:100A3000EBE7B3F5805F34D0B3F5005F0CD1CB6842
:100A40004A6889682068FFF7A7FF2268936843F423
:100A5000804393600020D8E7702B24D1CB684A688C
:100A600089682068FFF798FF2268936843F077034E
:100A700093600020C9E7CA6849682068FFF7F3FD62
:100A800060212068FFF703FE0020BEE7CA684968BE
:100A90002068FFF7D5FD40212068FFF7F8FD002012
:100AA000B3E70020B1E70120AFE70220704700BFA5
:100AB0008800FEFF90F83C20012A33D030B4034672
:100AC000012280F83C20022280F83D200068426824
:100AD0008468154DA84220D022F070020D682A4388
:100AE00042601A68104882420AD0B2F1804F07D0A3
:100AF000A0F59430824203D000F59E30824204D1AA
:100B000024F08004896821439160012283F83D200C
:100B1000002083F83C0030BC704722F470024D681E
:100B20002A43D9E702207047002C014070477047E4
:100B30007047000008B5074A136843F010031360BC
:100B4000032000F055FF002002F08EF9FFF758FD5A
:100B5000002008BD00200240034A1168034B1B78A7
:100B60000B441360704700BF4400002000000020C9
:100B7000014B1868704700BF44000020002800F0B7
:100B8000FF8270B582B00446036813F0010F3BD0BA
:100B9000B44B5B6803F00C03042B1ED0B14B5B68B5
:100BA00003F00C03082B13D06368B3F5803F68D0C3
:100BB000002B40F0928003F1804303F504331A6860
:100BC00022F480321A601A6822F480221A605DE0F2
:100BD000A44B5B6813F4803FE6D04FF4003393FAE4
:100BE000A3F3A04B19684FF4003393FAA3F3B3FABD
:100BF00083F303F01F03012202FA03F30B4203D035
:100C00006368002B00F0BE82236813F0020F00F02F
:100C1000C480944B5B6813F00C0F00F09C80914BE8
:100C20005B6803F00C03082B00F08F802369002B16
:100C300000F0F080012292FAA2F3B3FA83F303F1F9
:100C4000845303F584139B001A60FFF791FF054658
:100C5000022393FAA3F3834B1968022393FAA3F3B5
:100C6000B3FA83F303F01F03012202FA03F30B42EA
:100C700040F0C280FFF77CFF401B0228E8D9032028
:100C800089E2784A136843F480331360754AD36A63
:100C900023F00F03A1680B43D3626368002B36D0A7
:100CA000FFF766FF05464FF4003393FAA3F36D4B4D
:100CB00019684FF4003393FAA3F3B3FA83F303F004
:100CC0001F03012202FA03F30B429DD1FFF750FFED
:100CD000401B6428E7D903205DE2B3F5A02F09D0BB
:100CE000604B1A6822F480321A601A6822F480225B
:100CF0001A60CBE703F18043A3F53C331A6842F452
:100D000080221A601A6842F480321A60BEE7FFF748
:100D10002FFF05464FF4003393FAA3F3514B1968A4
:100D20004FF4003393FAA3F3B3FA83F303F01F03F2
:100D3000012202FA03F30B423FF466AFFFF718FFFC
:100D4000401B6428E6D9032025E2464B5B6813F478
:100D5000803F7FF46BAF022393FAA3F3414B1968F2
:100D6000022393FAA3F3B3FA83F303F01F030122E0
:100D700002FA03F30B4203D02369934240F004824A
:100D80003848036823F0F8036169F82292FAA2F266
:100D9000B2FA82F291400B430360236813F0080F0C
:100DA00000F08C80A369002B60D0012191FAA1F2A0
:100DB000B2FA82F22C4B13449B001960FFF7D8FE65
:100DC0000546022393FAA3F293FAA3F293FAA3F24D
:100DD000244A516A93FAA3F3B3FA83F303F01F038F
:100DE000012202FA03F30B4268D1FFF7C1FE401B58
:100DF0000228E6D90320CEE11A48036823F0F8035D
:100E00006169F82292FAA2F2B2FA82F291400B439F
:100E10000360C2E7012393FAA3F3B3FA83F303F168
:100E2000845303F584139B0000221A60FFF7A0FE91
:100E30000546022393FAA3F30A4B1968022393FA97
:100E4000A3F3B3FA83F303F01F03012202FA03F3BF
:100E50000B42A2D0FFF78CFE401B0228E9D90320E9
:100E600099E100BF0010024020819010012292FA07
:100E7000A2F2B2FA82F2B74B13449B0000221A602E
:100E8000FFF776FE0546022393FAA3F293FAA3F244
:100E900093FAA3F2B04A516A93FAA3F3B3FA83F335
:100EA00003F01F03012202FA03F30B4206D0FFF7FF
:100EB0005FFE401B0228E6D903206CE1236813F093
:100EC000040F00F0A980A44BDB6913F0805F20D1F0
:100ED000A14BDA6942F08052DA61DB6903F080539A
:100EE0000193019B01259D4B1B6813F4807F12D059
:100EF000E368012B23D073BB03F1804303F5043374
:100F00001A6A22F001021A621A6A22F004021A62B4
:100F10001AE00025E7E7914A136843F480731360F1
:100F2000FFF726FE06468D4B1B6813F4807FDFD14A
:100F3000FFF71EFE801B6428F5D903202BE1864AAB
:100F4000136A43F001031362E368002B3CD0FFF700
:100F50000FFE06462EE0052B09D07F4B1A6A22F0C1
:100F600001021A621A6A22F004021A62ECE77A4B52
:100F70001A6A42F004021A621A6A42F001021A6204
:100F8000E2E7022393FAA3F3734B596A022393FA1D
:100F9000A3F3B3FA83F303F01F03012202FA03F36E
:100FA000194238D1FFF7E4FD801B41F288339842A3
:100FB00000F2EC80022393FAA3F293FAA3F3002B3E
:100FC000DFD0654B196AE1E7FFF7D2FD064618E06E
:100FD000022393FAA3F3604B596A022393FAA3F313
:100FE000B3FA83F303F01F03012202FA03F3194259
:100FF00011D0FFF7BDFD801B41F28833984200F20B
:10100000C780022393FAA3F293FAA3F3002BDFD055
:10101000514B196AE1E7B5BBE369002B00F0BA80D8
:101020004D4A526802F00C02082A00F09980022B07
:101030002FD04FF0807393FAA3F3B3FA83F303F145
:10104000845303F584139B0000221A60FFF790FD80
:1010500004464FF0007393FAA3F33F4B19684FF027
:10106000007393FAA3F3B3FA83F303F01F0301228F
:1010700002FA03F319426BD0FFF77AFD001B022836
:10108000E7D9032087E0344AD36923F08053D36142
:10109000C2E74FF0807393FAA3F3B3FA83F303F13B
:1010A000845303F584139B0000221A60FFF760FD50
:1010B00005464FF0007393FAA3F3274B19684FF0DE
:1010C000007393FAA3F3B3FA83F303F01F0301222F
:1010D00002FA03F3194206D0FFF74AFD401B02282B
:1010E000E7D9032057E01C494B6823F47413626A64
:1010F000206A024313434B604FF0807393FAA3F3CB
:10110000B3FA83F303F1845303F584139B000122A4
:101110001A60FFF72DFD04464FF0007393FAA3F316
:101120000D4B19684FF0007393FAA3F3B3FA83F3EE
:1011300003F01F03012202FA03F3194206D1FFF75D
:1011400017FD001B0228E7D9032024E0002022E03D
:10115000002020E02081901000100240007000402C
:10116000012B1AD0104B5B6803F48031226A914244
:1011700015D103F47013626A934212D100200AE081
:1011800001207047012006E0012004E0032002E076
:10119000032000E0002002B070BD0120FBE7012029
:1011A000F9E70120F7E700BF00100240114B5A6831
:1011B00002F00C03042B18D0082B18D1C2F3834380
:1011C0000D49C85C0B4BDB6A03F00F030B49C95C8C
:1011D00012F4803F05D00A4BB3FBF1F303FB00F0A0
:1011E0007047084B03FB00F07047054870470648FE
:1011F000704700BF00100240345300082453000819
:10120000001BB70000093D0000127A00002800F022
:10121000BE8070B50D460446614B1B6803F00703A2
:101220008B420BD25E4A136823F007030B43136013
:10123000136803F007038B4240F0AB80236813F080
:10124000020F06D0574A536823F0F003A1680B43FE
:101250005360236813F0010F5AD06368012B2DD01F
:10126000022B40D0022292FAA2F24E4A10680222C9
:1012700092FAA2F2B2FA82F202F01F02012101FAFE
:1012800002F2104200F0878046494A6822F00302C9
:1012900013434B60FFF76CFC0646424B5B6803F060
:1012A0000C036268B3EB820F32D0FFF761FC801B46
:1012B00041F288339842F0D9032067E04FF40032BE
:1012C00092FAA2F2374A10684FF4003292FAA2F270
:1012D000B2FA82F202F01F02012101FA02F2024286
:1012E000D2D1012052E04FF0007292FAA2F22D4AC0
:1012F00010684FF0007292FAA2F2B2FA82F202F093
:101300001F02012101FA02F21042BDD101203DE08D
:10131000234B1B6803F00703AB420AD9204A13682A
:1013200023F007032B431360136803F00703AB425A
:1013300033D1236813F0040F06D01A4A536823F4FC
:10134000E063E1680B435360236813F0080F07D094
:10135000144A536823F46053216943EAC10353607C
:10136000FFF724FF0F4B5B6803F0F003F02292FAC3
:10137000A2F2B2FA82F2D3400B4AD35CD8400B4BB4
:1013800018600B4B186801F06FFD002070BD012044
:1013900070470120FAE70120F8E70120F6E700BFD7
:1013A00000200240001002404C53000808000020BA
:1013B00004000020014B1868704700BF080000209F
:1013C00008B5FFF7F7FF074B5B6803F4E0634FF4E2
:1013D000E06292FAA2F2B2FA82F2D340024AD35CFD
:1013E000D84008BD001002404453000808B5FFF77C
:1013F000E1FF074B5B6803F460534FF4605292FACD
:10140000A2F2B2FA82F2D340024AD35CD84008BDBD
:1014100000100240445300080F2303600B4B5A682E
:1014200002F0030242605A6802F0F00282605A68D9
:1014300002F4E062C2605B68DB0803F4E06303610E
:10144000034B1B6803F007030B607047001002405A
:1014500000200240F0B583B00446036813F4803FD7
:1014600044D0624BDB6913F0805F78D15F4BDA695F
:1014700042F08052DA61DB6903F080530193019BF3
:1014800001255B4B1B6813F4807F6AD0574B1B6AA6
:1014900013F4407321D0626802F440729A421CD067
:1014A0005248016A21F440764FF4803393FAA3F254
:1014B000B2FA82F24F4F3A4492004FF0010CC2F858
:1014C00000C093FAA3F3B3FA83F33B449B000022DA
:1014D0001A60066211F0010F57D1444A136A23F4CF
:1014E000407361680B431362002D74D1236813F0BD
:1014F000010F06D03D4A136B23F00303A1680B4391
:101500001363236813F0200F06D0384A136B23F0BF
:101510001003E1680B431363236813F0800F06D0B8
:10152000324AD36A23F4F87321690B43D3622368E8
:1015300013F4805F06D02D4A136B23F48073616926
:101540000B431363236813F4804F4BD0274A136B6C
:1015500023F48053A1690B431363002043E000256B
:101560008FE7234A136843F480731360FFF700FB8F
:1015700006461F4B1B6813F4807F87D1FFF7F8FAEC
:10158000801B6428F5D903202DE0FFF7F1FA064609
:1015900017E0022393FAA3F3144B596A022393FA38
:1015A000A3F3B3FA83F303F01F03012202FA03F358
:1015B0000B4292D1FFF7DCFA801B41F2883398424C
:1015C0000ED8022393FAA3F293FAA3F3002BE0D0F0
:1015D000064B196AE2E7D36923F08053D36185E7AC
:1015E000032000E0002003B0F0BD00BF0010024067
:1015F0000070004000819010F0B583B0002362E0DD
:1016000085685E000324B44025EA0405CC68B44034
:101610002C438460456825EA0C054C68C4F300142B
:101620009C402C4344605FE0DD08083550F82540BD
:1016300003F0070C4FEA8C0C4FF00F0E0EFA0CFE65
:1016400024EA0E0E0C6904FA0CF444EA0E0440F885
:10165000254060E0032400E0002404FA0EF42C434B
:101660000CF1020C4F4D45F82C404F4CA568D4436B
:1016700025EA02064F6817F4801F01D042EA0506EA
:10168000494DAE60ED6804EA05064F6817F4001F87
:1016900001D042EA0506444DEE606D6804EA050695
:1016A0004F6817F4003F01D042EA05063E4D6E60D8
:1016B0002D682C404E6816F4803F01D042EA0504A4
:1016C000394A146001330A6832FA03F468D04FF0E3
:1016D000010C0CFA03FC1CEA0202F3D04C6804F083
:1016E0000304013C012C8BD94C6804F00304032C47
:1016F0000CD0C4685D004FF0030C0CFA05FC24EA22
:101700000C0C8C68AC4044EA0C04C4604C6804F0D7
:101710000304022C88D004684FEA430E4FF0030CF8
:101720000CFA0EFC24EA0C0C4C6804F0030404FAD6
:101730000EF444EA0C0404604C6814F4403FC1D039
:101740001A4CA56945F00105A561A46904F00104DE
:101750000194019C4FEA930C0CF10205114C54F8D2
:10176000255003F0030E4FEA8E0E0F2404FA0EF4F8
:1017700025EA0405B0F1904F3FF46EAF0C4CA04247
:101780000AD004F58064A04208D004F58064A04229
:101790003FF460AF052460E701245EE702245CE7C4
:1017A00003B0F0BD00000140000401400010024001
:1017B000000400480AB1816170478162704730B40B
:1017C0000124056CAC40C56B6C60046863604368C1
:1017D000102B05D0036899600368DA6030BC70474D
:1017E00003689A600368D960F8E700000268054B57
:1017F0001344054AA2FB03231B099B000364034B0C
:10180000C3637047F8FFFDBFCDCCCCCC00000240D5
:1018100020B310B50446022380F8213001680A681D
:1018200022F47F5222F03002436880680343E0686C
:1018300003432069034360690343A0690343E069EC
:10184000034313430B602046FFF7D0FF0020A06343
:10185000012384F8213084F8200010BD0120704756
:1018600038B5044690F82000012831D0012084F8D2
:10187000200094F82100012804D0002384F82030AF
:10188000022038BD022084F821000020A0632568D2
:10189000286820F0010028602046FFF790FFE36AE7
:1018A0005BB12268136843F00E031360226813686B
:1018B00043F0010313600020E3E72268136843F05C
:1018C0000A0313602268136823F004031360EDE732
:1018D0000220D6E738B5C36B1A6804682568016C26
:1018E00004238B40134213D015F0040F10D023684B
:1018F00013F0200F03D1236823F004032360016C4D
:10190000C26B04238B405360C36A03B1984738BD50
:1019100002238B4013421AD015F0020F17D0236810
:1019200013F0200F06D1236823F00A03236001235C
:1019300080F82130016CC26B02238B40536000237E
:1019400080F82030836A002BE1D09847DFE7082336
:101950008B401342DBD015F0080FD8D0236823F05A
:101960000E032360026CC16B012303FA02F24A608A
:10197000836380F82130002380F82030036B002B34
:10198000C5D09847C3E70000002808DB0901C9B2A9
:1019900000F1604000F5614080F80013704700F0EE
:1019A0000F000901C9B2014B1954704714ED00E052
:1019B00000B500F00700C0F1070CBCF1040F28BF10
:1019C0004FF0040C031D062B0FD9C31E4FF0FF3E32
:1019D0000EFA0CF021EA000199400EFA03FE22EA09
:1019E0000E0241EA02005DF804FB0023EEE700006E
:1019F000074AD36823F4E0631B041B0C000200F4C5
:101A0000E060034343F0BF6343F40033D3607047A7
:101A100000ED00E010B50446054BD868C0F3022085
:101A2000FFF7C6FF01462046FFF7AEFF10BD00BF1F
:101A300000ED00E0002807DB00F01F024009012351
:101A40009340024A42F82030704700BF00E100E0B6
:101A5000034AD2F8883043F47003C2F888307047E4
:101A600000ED00E000B58BB00023079308930993C5
:101A700001930293039304930593069323484FF035
:101A8000A04202604360836001220261427680F8D6
:101A90002030C3628262C3600221C16180F83020BD
:101AA000042242610376436300F062F908BB00231D
:101AB000079307A9154800F019FEE8B9022301931E
:101AC00001230293002304930522039205930693B6
:101AD00001A90E4800F052FC88B9032301930223A8
:101AE000029301A9094800F049FC58B90BB05DF810
:101AF00004FBFEF795FCDAE7FEF792FCDEE7FEF763
:101B00008FFCEAE7FEF78CFCF0E700BF8C000020BA
:101B100010B588B0002303930493059306930793AD
:101B20000368B3F1A04F01D008B010BD044603F123
:101B3000704303F504335A6942F080525A615A697E
:101B400002F080520192019A5A6942F400325A61BD
:101B50005B6903F400330293029B06230393032380
:101B6000049303A94FF09040FFF746FD1148124B34
:101B700003600023436083608022C2604FF40072E0
:101B800002614FF40062426120228261C361FFF76B
:101B90003FFE58B9074BA3635C6200220621122066
:101BA000FFF738FF1220FFF745FFBDE7FEF738FCCF
:101BB000F0E700BF480000200800024000B583B0F5
:101BC0000A4B5A6942F001025A615B6903F0010352
:101BD0000193019B002205210B20FFF71BFF0B2027
:101BE000FFF728FF03B05DF804FB00BF00100240C0
:101BF00070477047704738B50268936803F0030375
:101C0000012B01D0002038BD0446136813F0010FEA
:101C100033D0936803F00D03012B09D0036C43F01C
:101C200010030364436C43F0010343640120EAE7BB
:101C3000936843F002039360036803221A60FEF77F
:101C400097FF054623689B6813F0010F13D0FEF73A
:101C50008FFF401B0228F5D923689B6813F0010F02
:101C6000F0D0236C43F010032364636C43F0010352
:101C700063640120C7E70020C5E70020C3E7000038
:101C800038B504460268936803F00303012B0DD0B6
:101C900091681A4B19420FD0236C43F01003236450
:101CA000636C43F001036364012038BD136813F0D3
:101CB000010FEDD00020F8E7936843F00103936033
:101CC000FEF756FF054623681B6813F0010F13D17A
:101CD000FEF74EFF431B022BF5D923681B6813F058
:101CE000010FF0D1236C43F010032364636C43F0C5
:101CF000010363640120D8E70020D6E73F0000809D
:101D000008B5406A036C43F040030364436C43F03E
:101D100004034364FFF76EFF08BD08B5406AFFF790
:101D200067FF08BD08B5436A1A6C12F0500F1AD14C
:101D30001A6C42F400721A641A68D26812F4406F86
:101D40000DD15A7E5AB91A6C22F480721A641A6C38
:101D500012F4805F03D11A6C42F001021A64184633
:101D600000F0CCFD08BD9B6B1B6B9847FAE70000A9
:101D700030B597B000230193002800F0F7800446A7
:101D8000036C13F0100F52D1036CABB10020236829
:101D90009A6812F0805F03D09B6813F0005F47D011
:101DA000236C23F0120343F010032364636C43F0AD
:101DB0000103636401203BE04364C364836480F8EF
:101DC0003C30FFF7A5FE23689B6813F0805F01D0CD
:101DD0000020DCE72046FFF70EFF236C13F0100F06
:101DE000D5D10028D3D1236C23F4885323F00203E8
:101DF00043F0020323642268936823F04053936006
:101E00002268936843F080539360594B1B68594A8A
:101E1000A2FB03239B0C03EB83035B00019302E013
:101E2000019B013B0193019B002BF9D1AFE70020FF
:101E3000236C13F0100F40F09080002840F08D804C
:101E40002368996811F0040140F08780226C22F425
:101E5000817242F002022264B3F1A04F54D04FF0DD
:101E6000A04202929A6802F00302012A4FD0029B1C
:101E700023B19A6802F00302012A4DD03E4A9368CA
:101E800023F4403365682B439360627E5303656B94
:101E9000012D01D04FF480510B43E1680B43A16841
:101EA0000B4394F8201001293BD0A26A012A02D0EA
:101EB000E16A0A4313432268916811F00C0F0CD1B8
:101EC000D16821F4804121F00201D160217E94F893
:101ED0003020520042EA813213432168CD68274AFC
:101EE0002A401A43CA602369012B2DD02268136B44
:101EF00023F00F03136300236364236C23F00303B5
:101F000043F0010323642FE01D4A0292AAE71B68F5
:101F100013F0010FB9D1AAE71B6813F0010FB4D178
:101F2000ACE732B9626A013A43EA424242F4803392
:101F3000BBE7226C22F0220242F020022264626C93
:101F400042F001026264B0E721680B6B23F00F03DB
:101F5000E269013A13430B63CDE7236C23F01203CC
:101F600043F010032364012017B030BD0120FBE7CC
:101F70000800002083DE1B430003005007C0F0FF71
:101F800000010050F8B504460068806810F0040FA6
:101F900040F083800E46154694F83C30012B7ED0ED
:101FA000012384F83C303F4B9B6813F01F0F05D092
:101FB000002384F83C3001273846F8BD2046FFF75F
:101FC0005FFE0746002864D1236C23F4706323F07E
:101FD000010343F480732364324B9B6813F01F0F9B
:101FE00017D02268B2F1A04F13D0236C43F48013B2
:101FF00023642D4B9A421BD14FF0A043DB6813F0B2
:10200000007F15D0236C23F4405343F480532364A2
:102010000EE0236C23F4801323642368DB6813F041
:10202000007F05D0236C23F4405343F48053236492
:10203000236C13F4805F29D0636C23F00603636480
:10204000002384F83C30A36B184A9A62A36B184AA9
:10205000DA62A36B174A1A6323681C221A6022688B
:10206000536843F0100353602268D36843F00103C0
:10207000D36021682B4632464031A06BFFF7F0FB5E
:102080002268936843F00403936095E70023636438
:10209000D6E7002384F83C308EE702278CE702273E
:1020A0008AE700BF0003005000010050251D000812
:1020B0001B1D0008011D0008012905D00368D3F885
:1020C000B40000F07F0070470368D3F8B400000C40
:1020D00070477047704770477047000070B50446FE
:1020E00003681D685E6815F0040F02D016F0040F37
:1020F00005D115F0080F50D016F0080F4DD0226C06
:1021000012F0100F03D1226C42F4007222649A4A3A
:10211000926812F01F0F12D0974A926802F01F02C5
:10212000052A0CD0944A926802F01F02092A06D0B0
:10213000B3F1A04F03D04FF0A042D16800E0D968BE
:10214000DA6812F4406F22D111F4005F1FD115F04C
:10215000080F1CD09A6812F0040F10D15A6822F0B0
:102160000C025A60236C23F480732364236C13F4F1
:10217000805F0CD1236C43F00103236407E0236CE0
:1021800043F010032364636C43F00103636420464F
:1021900000F0B4FB23680C221A6015F0200F02D067
:1021A00016F0200F05D115F0400F72D016F0400F39
:1021B0006FD0236C43F4005323646F4B9B6813F080
:1021C0001F0F13D06C4B9B6803F01F03052B0DD022
:1021D000694B9B6803F01F03092B07D02368B3F1F9
:1021E000A04F03D04FF0A043D96801E02368D9681D
:1021F0002368DA6C12F0C00F45D111F0007F06D0D1
:10220000DA6812F4406F3ED111F4005F3BD115F053
:10221000400F38D0584A926812F01F0F12D0564A19
:10222000926802F01F02062A0CD0534A926802F00C
:102230001F02072A06D0B3F1A04F03D04FF0A042EF
:10224000D26800E0DA6812F4001F1CD19A6812F01C
:10225000080F10D15A6822F060025A60236C23F4F0
:1022600080532364236C13F4807F0CD1236C43F0E0
:102270000103236407E0236C43F010032364636CC1
:1022800043F0010363642046FFF723FF23686022C5
:102290001A6015F0800F02D016F0800F33D115F4BC
:1022A000807F02D016F4807F38D115F4007F02D0F1
:1022B00016F4007F3ED115F0100F1DD016F0100F50
:1022C0001AD0636B012B09D02B4B9B6813F01F0FA7
:1022D0003CD12368DB6813F0010F0AD0236C43F470
:1022E00080632364636C43F0020363642046FFF75A
:1022F00081FC236810221A6015F4806F02D016F456
:10230000806F29D170BD236C43F480332364204651
:10231000FFF76FFC236880221A60C0E7236C43F448
:10232000003323642046FFF7D6FE23684FF4807203
:102330001A60BAE7236C43F4802323642046FFF736
:10234000CBFE23684FF400721A60B4E70A4B9B6817
:1023500013F4404FCDD0C1E7236C43F48043236492
:10236000636C43F00803636423684FF480621A606F
:102370002046FFF7AFFEC5E70003005030B496B02B
:102380000022019290F83C20012A00F0A58103462A
:10239000012280F83C200068826812F0040F40F0AF
:1023A00090814A68042A35D8046B02EB420252003D
:1023B0004FF01F0C0CFA02FC24EA0C0C0C68944041
:1023C0004CEA040404631868826812F00C0F6BD1A5
:1023D0000A68092A4FD9846902EB42021E3A4FF07B
:1023E000070C0CFA02FC24EA0C048D6805FA02F2D0
:1023F0002243826148691C68E268C2F3C10252004C
:1024000090400A69013A032A00F28D80DFE802F069
:10241000426A7580092A10D8446B02EB42025200CE
:102420001E3A4FF01F0C0CFA02FC24EA0C040D6853
:1024300005FA02F222434263C5E70E2A0DD8846BE7
:1024400002EB420252003C3A1F25954024EA050463
:102450000D6895402C438463B5E7C46B02EB4202E0
:1024600052005A3A1F25954024EA05040D6895400C
:102470002C43C463A7E7446902EB42024FF0070C08
:102480000CFA02FC24EA0C048D6805FA02F22243DD
:102490004261AFE7256E914A2A400D6840EA8565A2
:1024A0002A4342F0004222661868826802F0030262
:1024B000012A68D0CA68012A6BD0D0F8B020012464
:1024C0000D68AC4022EA0402C0F8B0200A68102A65
:1024D00000F08680112A00F0A480122A00F0A78064
:1024E0000020F3E0656E7D4A2A400D6840EA85656C
:1024F0002A4342F000426266D6E7A56E774A2A4038
:102500000D6840EA85652A4342F00042A266CBE7A7
:10251000E26E724D15400A6840EA8262154345F04A
:102520000045E566C0E7226E02F0F8420868B2EBAB
:10253000806F03D1226E22F0004222661A68506E2C
:1025400000F0F8400C68B0EB846F03D1506E20F0BF
:10255000004050661A68906E00F0F8400C68B0EBCE
:10256000846F03D1906E20F0004090661A68D06EA0
:1025700000F0F8400C68B0EB846F95D1D06E20F07D
:102580000040D06690E7026812F0010F92D0002060
:102590009CE0D0F8B0200D680124AC402243C0F884
:1025A000B0200A68092A0DD91D68A86902EB420209
:1025B0001B3A0724944020EA04008C68944020438E
:1025C000A86183E71D686869013202EB42020724B3
:1025D000944020EA04008C6894402043686175E7C9
:1025E0003F49896811F4000F7FF474AF1868B0F1A7
:1025F000A04F23D04FF0A0410291816801F0030168
:1026000001291ED0029921B18C6804F00304012C29
:1026100021D0102A24D0112A42D0122A4AD00020D8
:1026200054E02F49896811F0807FDFD055E72C49AD
:10263000896811F4800FD9D0002047E02949029120
:10264000DBE7016811F0010FDCD01A6C42F02002C8
:102650001A6401203AE0096811F0010FF5D1D8E7BA
:10266000B0F1A04FD7D11E498A6842F400028A60B7
:102670001D4A1268A1F14E61A1F58421A1F27D41AC
:10268000A1FB0212920C02EB82025200019202E0C4
:10269000019A013A0192019A002AF9D1002015E02D
:1026A000B0F1A04FB9D10E498A6842F080728A60B9
:1026B00000200BE00A498A6842F480028A60002008
:1026C00004E01A6C42F020021A640120002283F810
:1026D0003C2016B030BC70470220FAE700F0FF83C0
:1026E00000030050000100500800002030B494B0F6
:1026F00003460268B2F1A04F3DD04FF0A0400090D9
:102700000098002876D093F83CC0BCF1010F73D03C
:102710004FF0010C83F83CC0926812F0040F5ED1B8
:10272000826812F0040F5AD10A68002A32D0334C62
:10273000A26822F4604293F830C04D6845EA4C3CF0
:1027400042EA0C02A2601C68A26802F00302012A9D
:1027500014D0826802F00302012A15D0274CA26827
:1027600022F4716222F00F020868896801430A436B
:10277000A260002038E022480090C1E7226812F0F1
:10278000010FE6D000202FE0026812F0010FE5D023
:10279000002029E019498A6822F460428A60196899
:1027A0008A6802F00302012A0DD0826802F0030257
:1027B000012A0ED011498A6822F4716222F00F02B8
:1027C0008A60002010E00A6812F0010FEDD00020AE
:1027D0000AE0026812F0010FECD0002004E01A6C4D
:1027E00042F020021A640120002283F83C2014B039
:1027F00030BC70470120FAE70220F8E700030050E0
:1028000000010050174A01231370002151700FE09E
:10281000590001F1FF3C134810F80C20B2FA82F283
:10282000520900F81320013110F80C2042540133F2
:10283000072B16DC0C4AD25C012AE9D0590001F1C1
:10284000FF3C084810F80C20B2FA82F2520900F856
:10285000132010F80C200131B2FA82F252094254CE
:10286000E5E77047200100201C000020204B1B786A
:10287000012B09D01F4BDB7BB3FA83F35B091E4AA4
:1028800013705370012318E01A4BD97BB1FA81F30E
:102890005B09194A13705170F4E7590001F1FF3CCC
:1028A000154810F80C20B2FA82F2520900F81320F1
:1028B000013110F80C2042540133072B16DC0C4A6E
:1028C000D25C012AE9D0590001F1FF3C0A4810F816
:1028D0000C20B2FA82F2520900F8132010F80C20F2
:1028E0000131B2FA82F252094254E5E7704700BF63
:1028F0000C000020200100201001002038B5214BE1
:10290000834200D038BD204800F0BCF91F4B83ED56
:10291000000A1F4BD3ED007AB8EE670A9FED1D6ADF
:1029200020EE060ADFED1C6A20EE260A9FED1B7AD8
:1029300020EE070A1A4C84ED000AD3ED017AF8EE76
:10294000677A67EE867A67EEA67A67EE877AC4EDD5
:10295000017A144800F0FCF9134D85ED000A94ED5E
:10296000010A124800F0F4F9114B83ED000A114BF3
:102970002B60114B1B78042BC4D00F4B03221A7011
:10298000C0E700BF8C00002038010020DC000020E0
:10299000440100203333534000008039B072484175
:1029A0003C010020FC00002034010020E800002051
:1029B000300100200000A041E400002008B5012201
:1029C0004FF480714FF09040FEF7F4FE01224FF477
:1029D00000714FF09040FEF7EDFE08BD08B50022F3
:1029E0004FF480714FF09040FEF7E4FE00224FF468
:1029F00000714FF09040FEF7DDFE08BD08B530B124
:102A0000012280214FF09040FEF7D4FE08BD002245
:102A100080214FF09040FEF7CDFEF7E710B568B18A
:102A20000D4C01224FF400412046FEF7C3FE012267
:102A30004FF480412046FEF7BDFE10BD064C00223B
:102A40004FF400412046FEF7B5FE00224FF48041CE
:102A50002046FEF7AFFEF0E70004004808B52DED74
:102A6000028B0020FFF7CAFF0020FFF7D7FFFFF718
:102A7000A5FF9FED160A00F029F90120FFF7BEFF20
:102A80000120FFF7CBFF022211491248FFF77AFA23
:102A900020B900210F48FFF70FFB08B1FDF7C0FC7C
:102AA0009FED0D8AF3EE0E0AB0EE480A0B4800F0D7
:102AB00027F9F3EE0E0AB0EE480A094800F020F9B3
:102AC000FFF7A0FEBDEC028B08BD00BFCDCCCC3D16
:102AD000440100208C000020F2122C37FC00002062
:102AE000E800002008B510B1FFF768FF08BDFFF748
:102AF00075FFFBE708B5384B1B78032B30D0042B50
:102B000002D0022B61D008BD344BB3F900300F2B3B
:102B10000DDD1F2B16DD314B4FF6FF721A802F4A49
:102B20001388013313802E4B00221A80EBE701201B
:102B3000FFF774FF294BB3F900302A4AD05CFFF746
:102B4000D1FFECE70120FFF769FFFFF78FFE234B72
:102B5000B3F90030103B244AD05CFFF7C3FFDEE737
:102B60001F4BB3F900300F2B09DD1F2B19DDB3F517
:102B7000C87F24DB1A4B4FF6FF721A8009E0012050
:102B8000FFF74CFF164BB3F90030164AD05CFFF745
:102B9000A9FF134A138801331380104B00221A80B7
:102BA000B1E70120FFF73AFFFFF760FE0C4BB3F9E6
:102BB0000030103B0C4AD05CFFF794FFE9E700209F
:102BC000FFF72CFFFFF70AFFE3E70020FFF726FFE0
:102BD000FFF704FF97E700BFE4000020E2000020B9
:102BE000E0000020200100201001002082B0084BEE
:102BF0005B680193019A074B1B689A4203D2064A0D
:102C0000136801331360019A024B1A6002B07047D7
:102C1000001000E04C01002050010020104AD2F8C2
:102C2000FC3043F08073C2F8FC300E4B0021596039
:102C30001A6842F001021A600B4B03FB00F00B4BC9
:102C400018600B4BA3FB00239B090A4A13600A4B35
:102C5000A3FB0030800C094B1860094B19607047CA
:102C600000ED00E0001000E040420F005C01002099
:102C7000D34D62105801002083DE1B435401002015
:102C80005001002000B52DED028B83B00D4B5B6829
:102C90000193019B02689B1A07EE903AF8EE677A5F
:102CA000094B93ED007AB8EE477A87EE878A019B4D
:102CB0000360FFF79BFFB0EE480A03B0BDEC028B48
:102CC0005DF804FB001000E05C0100200A4B59682D
:102CD000094B5B685B1A094AD2ED007AF8EE677A15
:102CE00067EE807A07EE103AB8EE477AB4EEE77AEC
:102CF000F1EE10FAECD47047001000E05C01002007
:102D000010B52DED028B044680ED030ADFED0E7A3F
:102D100060EEA70AB7EE001AC1EE207AC0ED027A83
:102D200077EE807A9FED098AF0EE480A80EE270A56
:102D300000F01DF884ED040A84ED008A84ED018A18
:102D4000BDEC028B10BD00BFD00FC94000000000D9
:102D500080ED000AD0ED017A30EE670A90ED047A3A
:102D600020EE070A37EE800A80ED010A7047B4EEC4
:102D7000E00AF1EE10FA07D4B4EEC10AF1EE10FA4F
:102D800004DDB0EE410A7047B0EE600A704708B546
:102D9000012001F0B1FCFBE708B5044A002104481A
:102DA00001F034FC034B186008BD00BF7C530008E1
:102DB0008F2D00086001002008B50E480E4B0360FF
:102DC0002423436000238360C3604FF41022026118
:102DD0004FF4800242610122027643768376C37605
:102DE0000377437700F090F800B908BDFDF718FBB2
:102DF000FBE700BF640100200064004000B589B01B
:102E00000023039304930593069307930268144BDE
:102E10009A4202D009B05DF804FB03F5D633DA69B3
:102E200042F00072DA61DA6902F000720192019AEE
:102E30005A6942F480225A615B6903F48023029349
:102E4000029B4FF4407303930223049303230693DE
:102E50000923079303A90348FEF7CEFBDAE700BF77
:102E6000006400400004004830B589B00446224B9D
:102E7000DA6942F00102DA61DB6903F001030193D0
:102E8000019B02A903A8FEF7C7FA069BD3B9FEF778
:102E900097FA0346194AA2FB03239B0C013B1848EF
:102EA0004FF08042026040F2E732C260436000238C
:102EB000036183608361FDF73FFD054630B128461D
:102EC00009B030BDFEF77CFA4300E3E70C48FDF79C
:102ED000E7FB05460028F2D11C20FEF7ABFD0F2CC6
:102EE00001D90125EBE7002221461C20FEF792FDC7
:102EF000044B1C60E3E700BF0010024083DE1B436D
:102F00008C01002004000020002800F0A18038B5CA
:102F1000044690F82030D3B12268136843F00103CF
:102F20001360FDF725FE054623685A6812F0010F6D
:102F300010D1FDF71DFE401B0A28F5D9636A43F442
:102F400000336362052384F82030012038BDFFF789
:102F500055FFE1E71A6822F002021A60FDF708FE49
:102F6000054623685A6812F0020F0DD0FDF700FEE7
:102F7000401B0A28F5D9636A43F4003363620523D2
:102F800084F820300120E1E7227E012A3DD01A6832
:102F900022F080021A60637E012B3BD02268136806
:102FA00023F040031360A37E012B39D022681368FD
:102FB00023F020031360E37E012B37D022681368CF
:102FC00043F010031360237F012B35D02268136870
:102FD00023F008031360637F012B33D0226813684A
:102FE00023F004031360A368E268134322691343C8
:102FF000626913436268013A21681343CB61002080
:103000006062012384F82030A0E71A6842F0800251
:103010001A60C0E72268136843F040031360C2E7F8
:103020002268136843F020031360C4E72268136822
:1030300023F010031360C6E72268136843F0080307
:103040001360C8E72268136843F004031360CAE7FB
:103050000120704700F1080343604FF0FF328260A7
:10306000C36003610023036070470023036170475E
:1030700043684B609A688A60516099600861036890
:1030800001330360704730B40D68B5F1FF3F11D0D4
:1030900000F108031C465B681A68AA42FAD9636803
:1030A0004B6099608C606160086103680133036064
:1030B00030BC70470469F2E70369416882688A603E
:1030C000416851605A68824206D0002202611A6843
:1030D000013A1A601868704782685A60F5E710B5BF
:1030E000044601F0C7FCA26BE36B9A4204D00024B3
:1030F00001F0E2FC204610BD0124F9E710B50446BA
:1031000001F0B8FCA36B23B9012401F0D5FC2046E3
:1031100010BD0024F9E770B504461546866B026CB5
:103120005AB903681BB100200136A66370BD406820
:1031300000F0C6FF00236360F6E76DB98068FDF715
:10314000A1F8A368226C1344A3606268934219D368
:103150002368A3602846E7E7C068FDF793F8E368B3
:10316000226C51429B1AE3602268934202D2636848
:103170000B44E360022D01D00020D5E726B1013ECB
:103180000020D1E72846CFE70020CDE70346026CB8
:103190006AB110B50846D9681144D9605C68A1428B
:1031A00001D31968D960D968FDF76CF810BD704774
:1031B00038B5054601F05EFC95F8454064B201E083
:1031C000013C64B2002C0ADD6B6A43B105F12400B6
:1031D00000F0CCFE0028F3D000F05CFFF0E7FF2306
:1031E00085F8453001F068FC01F044FC95F8444056
:1031F00064B201E0013C64B2002C0ADD2B6943B1EA
:1032000005F1100000F0B2FE0028F3D000F042FFFC
:10321000F0E7FF2385F8443001F04EFC38BD38B5A7
:10322000E0B10D46044601F025FC2368E26B216CF9
:1032300001FB023060600020A063A360013A02FB42
:103240000133E360FF2384F8443084F84530FDB94E
:10325000236963B901F030FC012038BD4FF0500301
:1032600083F31188BFF36F8FBFF34F8FFEE704F135
:10327000100000F07BFE0028ECD04FF0E0234FF070
:103280008052C3F8042DBFF34F8FBFF36F8FE1E778
:1032900004F11000FFF7DEFE04F12400FFF7DAFE70
:1032A000D8E738B51D46049C0B4649B92460E06355
:1032B000236401212046FFF7B2FF84F84C5038BD4B
:1032C0002260F4E740B94FF0500383F31188BFF355
:1032D0006F8FBFF34F8FFEE710B584B01C46844656
:1032E00053B192B189B94FF0500383F31188BFF302
:1032F0006F8FBFF34F8FFEE74FF0500383F31188BA
:10330000BFF36F8FBFF34F8FFEE76AB15023039374
:10331000039B502B13D04FF0500383F31188BFF35E
:103320006F8FBFF34F8FFEE70029EFD04FF05003B0
:1033300083F31188BFF36F8FBFF34F8FFEE7012335
:1033400084F8463000949DF818306046FFF7A9FFD6
:10335000204604B010BDF0B585B0019288B10F468B
:103360001D460446B1B1022D20D1E36B012B1DD0C7
:103370004FF0500383F31188BFF36F8FBFF34F8F6C
:10338000FEE74FF0500383F31188BFF36F8FBFF355
:103390004F8FFEE7036C002BE5D04FF0500383F313
:1033A0001188BFF36F8FBFF34F8FFEE700F078FEF9
:1033B000064658B9019B002B48D04FF0500383F3C9
:1033C0001188BFF36F8FBFF34F8FFEE700263DE0FC
:1033D0002A4639462046FFF79EFE636A7BB948B10C
:1033E0004FF0E0234FF08052C3F8042DBFF34F8F0E
:1033F000BFF36F8F01F060FB012005B0F0BD04F159
:10340000240000F0B3FD0028F4D04FF0E0234FF08B
:103410008052C3F8042DBFF34F8FBFF36F8FE9E7DE
:1034200001F04AFB0020E8E702A800F0E5FD0126D4
:1034300019E0002384F8443021E0002384F845306B
:1034400023E02046FFF7B4FE00F06EFC01F012FB13
:10345000A26BE36B9A42BBD3022DB9D0019B002B28
:10346000DED0002EE0D001F027FB00F0C3FB01F01E
:1034700001FB94F8442052B2B2F1FF3FD9D094F846
:10348000452052B2B2F1FF3FD7D001F015FB01A9A0
:1034900002A800F0BDFDD8B92046FFF720FE0028A5
:1034A000CFD0019904F1100000F02CFD2046FFF769
:1034B0007FFE00F039FC0028C8D14FF0E0234FF028
:1034C0008052C3F8042DBFF34F8FBFF36F8FBDE75A
:1034D0002046FFF76DFE00F027FC00208DE72DE968
:1034E000F84390B10F4616461C460546B1B1022C72
:1034F00020D1EB6B012B1DD04FF0500383F31188CB
:10350000BFF36F8FBFF34F8FFEE74FF0500383F38E
:103510001188BFF36F8FBFF34F8FFEE7036C002B53
:10352000E5D04FF0500383F31188BFF36F8FBFF3E3
:103530004F8FFEE701F0C4FBEFF311884FF050030B
:1035400083F31188BFF36F8FBFF34F8FAA6BEB6BC1
:103550009A4206D3022C04D0002088F31188BDE8DB
:10356000F88395F845904FFA89F92246394628465E
:10357000FFF7D1FDB9F1FF3F06D009F101035BB2BE
:1035800085F845300120E8E76B6A0BB90120E4E7D4
:1035900005F1240000F0EAFC18B126B101203060EA
:1035A000DBE70120D9E70120D7E7F0B585B001922C
:1035B00090B10F460446C1B100F072FD064600BB53
:1035C000019B002B5ED04FF0500383F31188BFF3B3
:1035D0006F8FBFF34F8FFEE74FF0500383F31188D7
:1035E000BFF36F8FBFF34F8FFEE7036C002BE3D069
:1035F0004FF0500383F31188BFF36F8FBFF34F8FEA
:10360000FEE700263EE039462046FFF7BFFD013DBC
:10361000A563236923B901F04FFA012005B0F0BD7D
:1036200004F1100000F0A2FC0028F4D04FF0E023D9
:103630004FF08052C3F8042DBFF34F8FBFF36F8F4D
:10364000E9E701F039FA0020E8E702A800F0D4FC2D
:10365000012621E0002384F8443029E0002384F887
:1036600045302BE02046FFF7A3FD00F05DFB09E0AD
:103670002046FFF79DFD00F057FB2046FFF73EFD7B
:1036800000283FD101F0F6F9A56B002DBBD1019BBD
:10369000002BD6D0002ED8D001F00EFA00F0AAFAF6
:1036A00001F0E8F994F844305BB2B3F1FF3FD1D0B8
:1036B00094F845305BB2B3F1FF3FCFD001F0FCF995
:1036C00001A902A800F0A4FC0028D1D12046FFF7F0
:1036D00015FD0028C6D0019904F1240000F012FC69
:1036E0002046FFF765FD00F01FFB0028CAD14FF010
:1036F000E0234FF08052C3F8042DBFF34F8FBFF388
:103700006F8FBFE7002089E70023072B0CD8074AFB
:1037100052F833200AB10133F7E7044A42F8331074
:1037200002EBC30250607047704700BFD801002011
:1037300070B504460D46164601F09CF994F84430E5
:103740005BB2B3F1FF3F0DD094F845305BB2B3F1FB
:10375000FF3F0BD001F0B0F9A36B5BB12046FFF740
:1037600027FD70BD002384F84430EDE7002384F882
:103770004530EFE73246294604F1240000F0DAFB39
:10378000ECE70000084B1B681B6823B9074B4FF0A0
:10379000FF321A607047044B1B68DB68DB685A68AD
:1037A000024B1A60704700BF8802002020020020F0
:1037B0002DE9F04780460D4617469946089EDDF8EC
:1037C00024A00A9C9200A521206BFCF7E1FC236B4E
:1037D00007F18042013A03EB820727F007074FF019
:1037E000000CBCF10F0F09D815F80C3004EB0C02DB
:1037F00082F8343013B10CF1010CF2E7002384F8A5
:103800004330372E00D93726E662E6640025256569
:10381000201DFFF72AFC04F11800FFF726FC2461A5
:10382000C6F13806A6616462656584F858504A4658
:103830004146384601F0F0F82060BAF1000F01D09F
:10384000CAF80040BDE8F08738B5002407E004EB73
:10385000840293000E481844FFF7FCFB0134372C18
:10386000F5D90C4D2846FFF7F5FB0B4C2046FFF72A
:10387000F1FB0A48FFF7EEFB0948FFF7EBFB0948AD
:10388000FFF7E8FB084B1D60084B1C6038BD00BF0C
:10389000B4020020A00200208C0200207002002050
:1038A0005C020020440200208802002084020020E4
:1038B00010B5044601F0DEF8224A136801331360A4
:1038C000214B1B685BB1214B1B686BB91E4B1B68FE
:1038D000DA6AE36A9A4207D81B4B1C6004E01A4B71
:1038E0001C601368012B29D0194A13680133136037
:1038F0006364E06A174B1B68984201D9154B186046
:1039000000EB8000211D144B03EB8000FFF7B0FBA0
:1039100001F0D2F80D4B1B687BB10B4B1B68DA6AC8
:10392000E36A9A4209D24FF0E0234FF08052C3F885
:10393000042DBFF34F8FBFF36F8F10BDFFF784FFD0
:10394000D2E700BF4002002014070020340200200C
:103950002402002038020020B402002010B50446E2
:1039600090F8593063B1012B11D0022B0ED04FF0DB
:10397000500383F31188BFF36F8FBFF34F8FFEE7C0
:10398000006B00F0D3FF204600F0D0FF10BD00F028
:10399000CDFFFBE70F4B1B68D3B110B501F06AF800
:1039A0000D4BDB68DC68201DFFF786FB0B4A1368B4
:1039B000013B1360074A1368013B136001F07CF878
:1039C0002046FFF7CBFF034B1B68002BE6D110BD51
:1039D000704700BF580200205C0200204002002017
:1039E00008B5FFF7D7FF074B1B68012BF9D94FF03C
:1039F000E0234FF08052C3F8042DBFF34F8FBFF385
:103A00006F8FEEE7B402002070B504460D46174BE9
:103A10001E68174B18680430FFF74EFBB4F1FF3FE8
:103A20000DD03444124B1B685C60A64210D9114B78
:103A300018680F4B19680431FFF725FB70BD002D86
:103A4000EFD00B4B196804310B48FFF711FBF5E77A
:103A50000A4B1868064B19680431FFF714FB084B32
:103A60001B68A342EAD9064B1C60E7E73C02002032
:103A70001407002084020020440200208802002055
:103A80002002002030B587B00B9C7CB10C9DB5B1F5
:103A90005C250495049D5C2D1AD04FF0500383F3F0
:103AA0001188BFF36F8FBFF34F8FFEE74FF05003C6
:103AB00083F31188BFF36F8FBFF34F8FFEE74FF093
:103AC000500383F31188BFF36F8FBFF34F8FFEE76F
:103AD0000C9D2C63022485F8594000240394029520
:103AE00005AC01940A9C0094FFF762FE0C98FFF766
:103AF000DFFE059807B030BD2DE9F04385B00746DD
:103B0000884614461E46900000F094FE08B3814695
:103B10005C2000F08FFE0546A8B1C0F8309000236D
:103B200080F85930039302900D9B01930C9B0093F6
:103B30003346224641463846FFF73AFE2846FFF70D
:103B4000B7FE012007E0484600F0F0FE4FF0FF30DE
:103B500001E04FF0FF3005B0BDE8F08310B588B04C
:103B600000240594069407AA06A905A800F0E6FD1E
:103B7000059B0293069B019300942346079A1749DD
:103B80001748FFF77FFF174B1860C0B100F04CFBE0
:103B9000012815D14FF0500383F31188BFF36F8FC5
:103BA000BFF34F8F104B4FF0FF321A600F4B0122C3
:103BB0001A600F4B00221A6000F0F6FF03E00020AD
:103BC000B0F1FF3F01D008B010BD4FF0500383F3B8
:103BD0001188BFF36F8FBFF34F8FFEE76453000868
:103BE000E13900081C0200202002002034020020DD
:103BF0003C020020024A136801331360704700BF83
:103C000018020020014B1868704700BF3C020020DA
:103C1000F8B53A4B1B68002B64D1394B1D68013550
:103C20001D60C5B9374B1B681B6843B14FF050038B
:103C300083F31188BFF36F8FBFF34F8FFEE7314AD5
:103C40001168314B186810601960304A13680133ED
:103C50001360FFF797FD2E4B1B68AB4238D9002746
:103C60002C4B1B68DB6A03EB83039A002A4B9B589F
:103C7000012B3CD901273AE00127224B1B681B6826
:103C800043B3204B1B68DB68DC6863689D4226D326
:103C9000261D3046FFF710FAA36A1BB104F1180085
:103CA000FFF70AFAE36A1D4A1268934201D91B4AD8
:103CB000136003EB83039A00314617481044FFF763
:103CC000D7F9E26A134B1B68DB6A9A42D4D2D4E775
:103CD0000027D2E70E4B4FF0FF321A60C0E70C4AC4
:103CE0001360BDE70E4A13680133136000270D4BC4
:103CF0001B6803B101273846F8BD00BF1802002039
:103D00003C020020880200208402002028020020BB
:103D10002002002014070020B402002038020020F6
:103D2000300200202C02002038B5354B1B6843B907
:103D30004FF0500383F31188BFF36F8FBFF34F8FA2
:103D4000FEE700F097FE2E4B1A68013A1A601B68D6
:103D5000002B4FD12B4B1B680BB900244BE00024E8
:103D6000294B1B681BB3284BDB68DC6804F1180087
:103D7000FFF7A2F9251D2846FFF79EF9E06A234BBD
:103D80001B68984201D9214B186000EB800029463E
:103D90001F4B03EB8000FFF76BF9E26A1D4B1B68BA
:103DA000DB6A9A42DCD31C4B01221A60D8E70CB1C3
:103DB000FFF7E8FC194B1C6884B9174B1C68D4B199
:103DC0004FF0E0234FF08052C3F8042DBFF34F8F24
:103DD000BFF36F8F01240EE0013C07D0FFF718FFFF
:103DE0000028F9D00C4B01221A60F5E70B4B00229A
:103DF0001A60E2E7002400F05FFE204638BD00BFF5
:103E0000180200204002002070020020380200202A
:103E1000B4020020140700202C02002030020020F1
:103E200010B5A8B10446104B1B6843B14FF05003C6
:103E300083F31188BFF36F8FBFF34F8FFEE7FFF758
:103E4000D9FE00212046FFF7DFFDFFF76DFF48B9DF
:103E50004FF0E0234FF08052C3F8042DBFF34F8F93
:103E6000BFF36F8F10BD00BF18020020204B1B68EE
:103E70001BB1204B01221A6070471E4B00221A60B2
:103E80001D4B1B6803EB83018A001C498A585AB9F1
:103E90000BB1013BF6E74FF0500383F31188BFF3FA
:103EA0006F8FBFF34F8FFEE7084603EB83018A0055
:103EB000024451684968516003EB830C4FEA8C025D
:103EC0000832024491420BD003EB830291000B4A6B
:103ED0000A445268D1680A4A1160074A1360704761
:103EE000486862469100054A0A445060ECE700BF0A
:103EF000180200202C02002038020020B40200200A
:103F00001407002058B110B50C46094A1168183141
:103F1000FFF7B9F801212046FFF776FD10BD4FF0FD
:103F2000500383F31188BFF36F8FBFF34F8FFEE70A
:103F30001407002038B570B10D4614460A4A1168BE
:103F40001831FFF795F80CB14FF0FF3521462846A0
:103F5000FFF75AFD38BD4FF0500383F31188BFF3CC
:103F60006F8FBFF34F8FFEE71407002038B5C3688B
:103F7000DC6824B304F118052846FFF79DF8184BB8
:103F80001B682BBB251D2846FFF796F8E06A154BEA
:103F90001B68984201D9134B186000EB800029463A
:103FA000114B03EB8000FFF763F8E26A0F4B1B68CD
:103FB000DB6A9A4211D901200D4B186038BD4FF0D1
:103FC000500383F31188BFF36F8FBFF34F8FFEE76A
:103FD00029460848FFF74CF8E7E70020EEE700BF66
:103FE0001802002038020020B4020020140700202C
:103FF0002C02002070020020034B1B680360034B5F
:104000001B684360704700BF280200203C0200206C
:10401000F8B5C8B10C460546F9B100F02BFD1B4BB5
:1040200019686B68C81A2268B2F1FF3F26D0184E93
:1040300036682F68B74201D08B4224D9824215D806
:104040000023236001241AE04FF0500383F311880A
:10405000BFF36F8FBFF34F8FFEE74FF0500383F333
:104060001188BFF36F8FBFF34F8FFEE75B1A1344C6
:1040700023602846FFF7C0FF002400E0002400F082
:104080001BFD2046F8BD0124F9E700BF3C020020DB
:1040900028020020014B01221A6070472C020020E8
:1040A000054B1B6833B1054B1B680BB100207047F3
:1040B00002207047012070473402002018020020BF
:1040C00000283BD038B504461E4B1B68834208D0FD
:1040D0004FF0500383F31188BFF36F8FBFF34F8FFF
:1040E000FEE7036D43B94FF0500383F31188BFF32C
:1040F0006F8FBFF34F8FFEE7013B0365C16AC26C50
:1041000091421DD00BB1002038BD051D2846FEF799
:10411000D3FFE06CE062C0F13803A3610A4B1B6877
:10412000984201D9084B186000EB80002946074BE4
:1041300003EB8000FEF79CFF0120E5E700207047BD
:104140000020E1E71407002038020020B40200201C
:10415000064B1A681368B3FA83F35B09036013B95B
:10416000D368186870470020704700BF1808002007
:1041700008B54160006191420CD8D21A83699A4215
:1041800001D3012008BD011D094B1868FEF77BFF14
:104190000020F7E79A4201D2994206D2011D054B51
:1041A0001868FEF770FF0020ECE70120EAE700BF87
:1041B000140800201808002030B583B000F05AFC25
:1041C000114B1B681BB100F077FC03B030BD0F4DE5
:1041D0002846FEF73FFF0E4C2046FEF73BFF0D4BF7
:1041E0001D600D4B1C60002300930C4B0C4A1021EA
:1041F0000A20FFF767F8044B18600028E3D009494C
:10420000FFF782FADFE700BF100800203008002027
:104210001C0800201808002014080020180700209F
:10422000680700206C53000810B588B0FFF7C4FF82
:10423000124B1B68CBB100240594069407AA06A96B
:1042400005A800F087FA059B0293069B01930223C1
:1042500000932346079A0A490A48FFF713FC0A4BC2
:10426000186010B1012008B010BD4FF0500383F367
:104270001188BFF36F8FBFF34F8FFEE71008002048
:1042800074530008654500080C080020B8B19C462E
:1042900003461848006858B300B585B000910192F4
:1042A000029305291CDCFFF7FBFE022810D0002337
:1042B0001A4669460F480068FFF74DF815E04FF0C1
:1042C000500383F31188BFF36F8FBFF34F8FFEE767
:1042D0000023069A694607480068FFF73CF804E0A7
:1042E000002362466946FFF7FAF805B05DF804FB63
:1042F000002070471008002070B582B01A4B1B6870
:104300001A6852B3DB681E68DC68251D2846FEF774
:10431000D3FE636A20469847E369012BEED1A36977
:1043200033449E4207D26360246129460E4B1868CD
:10433000FEF7A9FEE2E7002100910B463246204637
:10434000FFF7A4FF0028D9D14FF0500383F3118861
:10435000BFF36F8FBFF34F8FFEE7044A1068024927
:104360000860136002B070BD180800201408002017
:1043700038B50546FFF746FC0446074B1B688342E9
:1043800005D800232B60044B1C60204638BDFFF786
:10439000B3FF01232B60F6E70808002070B582B058
:1043A00006460D4614490968C968CC68201DFEF709
:1043B00083FEE169012904D0636A2046984702B070
:1043C00070BDA16933462A4631442046FFF7D0FE2E
:1043D0000028F1D0002100910B4632462046FFF71D
:1043E00055FF0028E8D14FF0500383F31188BFF345
:1043F0006F8FBFF34F8FFEE71808002070B582B0B3
:1044000006460C46FFF7F6FB01A8FFF7B1FF019B3C
:1044100023BB054644B9B0420CD3FFF785FC2946BF
:104420003046FFF7BBFF1BE00E4B1B681C68B4FA5D
:1044300084F464092246711B0B4B1868FFF778F966
:10444000FFF772FC60B94FF0E0234FF08052C3F8E1
:10445000042DBFF34F8FBFF36F8F01E0FFF764FCB4
:1044600002B070BD140800201008002010B588B0FC
:1044700002E0049B002B0FDA002204A9384B1868D5
:10448000FFF793F8002869D0049B002BF1DA079915
:104490000698059B9847ECE7069C636913B1201DBD
:1044A000FEF70AFE03A8FFF763FF049B092BE3D87E
:1044B00001A252F823F000BFE1440008E1440008E3
:1044C000E144000879440008274500084D450008EC
:1044D000E1440008E1440008794400082745000849
:1044E000059BA169024619442046FFF741FE0028BA
:1044F000C2D0636A20469847E369012BBCD1A26908
:10450000002100910B46059802442046FFF7BEFEAD
:104510000028B1D14FF0500383F31188BFF36F8FA0
:10452000BFF34F8FFEE70599A16131B10346024603
:1045300001442046FFF71CFE9EE74FF0500383F333
:104540001188BFF36F8FBFF34F8FFEE794F82C30C5
:10455000002B91D1204600F0E9F98DE708B010BD9D
:104560001008002000B583B001A8FFF7F1FD019904
:10457000FFF744FFFFF77AFFF6E70000EFF305834C
:1045800093B9EFF3108393B90C4B1868022804D049
:1045900080B90A4B01221A607047EFF31183002B98
:1045A000F6D06FF0050070476FF0050070476FF0B0
:1045B000050070474FF0FF30704700BFFC0E002031
:1045C00008B5EFF30583B3B9EFF31083B3B90E4B1E
:1045D0001B68022B08D0012B13D10B4B02221A604F
:1045E000FFF7BCFA002008BDEFF31182002AF2D0D9
:1045F0006FF00500F7E76FF00500F4E76FF00500D6
:10460000F1E74FF0FF30EEE7FC0E0020F0B587B089
:1046100000240494EFF30584002C43D1EFF31083BE
:10462000002B3FD1334B1B68022B16D0002839D00A
:1046300000238DF8173062B3156895B1936903B9FB
:1046400018235C1E372C51D8546814F0010F4FD139
:1046500056694EB14FEA960C08E0EFF311830BBB9D
:10466000E4E70DF11705E9E74FF0800C94682CB1F1
:10467000D7685B2F02D9176907B1B6B914B14FF0EB
:10468000FF340CE0D46894B914699CB14FF0FF3446
:1046900005E0002418234FF0800C0DF11705012CC4
:1046A0000AD0ACB1049807B0F0BD0124F7E74FF091
:1046B000FF34F4E70024F2E714699268029201944F
:1046C00000930B4662462946FFF7DCF90490E9E7C0
:1046D00004AA019200930B461FFA8CF22946FFF7B9
:1046E0000BFA0128DED000230493DBE70020DAE791
:1046F0000020D8E7FC0E002008B5EFF30583A3B92E
:10470000EFF31083A3B90C4B1B68022B02D040B906
:10471000002008BDEFF31183002BF8D06FF00500E7
:10472000F7E7FFF77DFB0020F3E76FF00500F0E708
:104730006FF00500EDE700BFFC0E0020034B0360A7
:10474000034B0B6080231360704700BFA00E002056
:10475000A00C0020034B0360034B0B604FF48073ED
:1047600013607047440C002044080020124A12F0E5
:10477000070F1ED0D11D21F00701C1F5406313447E
:104780000A460E480260002141601344083B23F0B2
:1047900007030B48036059601960991A5160136050
:1047A000084B1960084B1960084B4FF000421A6023
:1047B00070474FF44063E4E7180F0020100F00200B
:1047C0000C0F0020040F0020080F0020000F002015
:1047D000164B1A461B688342FBD3516802EB010C4F
:1047E000844509D0416800EB010C634509D00360A2
:1047F000904219D0106070474068014451601046E3
:10480000F0E710B40A4C2468A3420BD05B6819444B
:10481000416013681B680360904200D010605DF82F
:10482000044B70470460F7E7704700BF100F00208B
:104830000C0F002038B50446FFF7DCF9364B1B6837
:10484000B3B1364B1B681C424CD1002C4CD004F148
:10485000080214F0070F02D022F007020832002AE3
:1048600051D02F4B1B6893424FD32E490C6804E064
:10487000FFF77CFFE5E721461C466368934202D2BE
:104880002368002BF7D1244B1B68A3423FD00D684F
:10489000083523680B6063689B1A102B10D9A01889
:1048A00010F0070F08D04FF0500383F31188BFF3C7
:1048B0006F8FBFF34F8FFEE743606260FFF788FFA3
:1048C000626817490B689B1A0B60174909688B428D
:1048D00001D215490B60114B1B6813436360002321
:1048E000236002E0002500E00025FFF71DFA15F027
:1048F000070F0ED04FF0500383F31188BFF36F8F73
:10490000BFF34F8FFEE70025EFE70025EDE7002519
:10491000EBE7284638BD00BF0C0F0020000F002039
:10492000080F0020100F0020040F002080B338B5BE
:104930000446A0F1080550F8043C164A12681342D8
:1049400008D14FF0500383F31188BFF36F8FBFF38B
:104950004F8FFEE750F8081C41B14FF0500383F32E
:104960001188BFF36F8FBFF34F8FFEE723EA020377
:1049700040F8043CFFF73EF954F8041C064A13685B
:104980000B4413602846FFF723FFFFF7CDF938BD2E
:10499000704700BF000F0020080F002082B00023E6
:1049A00001930D4B1B68B3F1FF3F08D04FF050034C
:1049B00083F31188BFF36F8FBFF34F8FFEE74FF084
:1049C000500383F31188BFF36F8FBFF34F8F019BA9
:1049D000002BFCD002B0704724000020084800687B
:1049E000006880F308884FF0000080F3148862B6F6
:1049F00061B6BFF34F8FBFF36F8F00DF00BF0000C2
:104A000008ED00E0DFF80C00016841F4700101607E
:104A10007047000088ED00E04FF0807340F8043CE0
:104A200021F0010140F8081C054B40F80C3C40F80F
:104A3000202C6FF0020340F8243C4438704700BF3C
:104A40009D49000800000000000000000000000078
:104A5000074B19680868B0E8F04F80F30988BFF386
:104A60006F8F4FF0000080F311887047AFF3008024
:104A7000140700204FF0500383F31188BFF36F8FAA
:104A8000BFF34F8F0B4A136801331360012B00D023
:104A900070474FF0E023D3F8043D13F0FF0FF7D039
:104AA0004FF0500383F31188BFF36F8FBFF34F8F25
:104AB000FEE700BF24000020094B1B6843B94FF0FC
:104AC000500383F31188BFF36F8FBFF34F8FFEE75F
:104AD000013B034A13600BB983F31188704700BF91
:104AE0002400002000000000000000000000000082
:104AF000EFF30980BFF36F8F154B1A681EF0100F8C
:104B000008BF20ED108A20E9F04F10602DE9090060
:104B10004FF0500080F31188BFF34F8FBFF36F8FBA
:104B2000FFF7A4F94FF0000080F3118809BC196861
:104B30000868B0E8F04F1EF0100F08BFB0EC108A04
:104B400080F30988BFF36F8F704700BFAFF3008019
:104B50001407002008B54FF0500383F31188BFF30A
:104B60006F8FBFF34F8FFFF753F828B14FF0E0235B
:104B70004FF08052C3F8042D002383F3118808BD41
:104B80004FF0E022002313619361054B1B68054938
:104B9000A1FB03139B09013B53610723136170477A
:104BA00008000020D34D62104FF0E023D3F8002D11
:104BB0003D4B9A421CD04FF0E023D3F8002D3B4BE5
:104BC0009A421ED030B583B0394B1A78D2B20192D6
:104BD000FF221A701B78DBB28DF803309DF803308A
:104BE00003F05003334A1370334B07221A601BE063
:104BF0004FF0500383F31188BFF36F8FBFF34F8FD4
:104C0000FEE74FF0500383F31188BFF36F8FBFF3BC
:104C10004F8FFEE7284A1368013B13609DF803306D
:104C20005B00DBB28DF803309DF8033013F0800F8A
:104C3000F0D1214B1B68032B08D04FF0500383F3B6
:104C40001188BFF36F8FBFF34F8FFEE71B021A4A25
:104C5000136003F4E0631360019BDBB2144A13702A
:104C60004FF0E024D4F8203D43F47003C4F8203D15
:104C7000D4F8203D43F07043C4F8203DFFF780FF97
:104C800000250E4B1D60FFF7BDFED4F8343F43F006
:104C90004043C4F8343FFFF7A1FEFFF7E7F8FFF702
:104CA0007DFE284603B030BD71C20F4170C20F4176
:104CB00000E400E01C1B0020181B00202400002042
:104CC000EFF305830F2B0FD9114A9B5CDBB2114A1E
:104CD00012789A4208D94FF0500383F31188BFF33A
:104CE0006F8FBFF34F8FFEE74FF0E023D3F80C3DFB
:104CF00003F4E063084A1268934208D94FF0500366
:104D000083F31188BFF36F8FBFF34F8FFEE77047B8
:104D1000F0E300E01C1B0020181B002008B50B4826
:104D20000B4B03604FF41643436000238360C36062
:104D300003610C2242618361C3610362436200F03C
:104D400030FA00B908BDFBF76BFBFBE7201B002026
:104D50000038014000B589B0002303930493059304
:104D6000069307930268134B9A4202D009B05DF88C
:104D700004FB03F558439A6942F480429A619A69A8
:104D800002F480420192019A5A6942F480225A61E7
:104D90005B6903F480230293029BC02303930223E5
:104DA0000493032306930723079303A90248FCF700
:104DB00023FCDBE70038014000040048026852E8A9
:104DC000003F23F4907342E800310029F6D10268D5
:104DD00002F1080353E8003F23F00103083242E8E0
:104DE00000310029F3D1036E012B06D02023C0F837
:104DF00080300023036683667047026852E8003FF4
:104E000023F0100342E800310029F6D1EEE700005C
:104E100010B5044683680269134342691343C269AB
:104E20001343016808684E4A02401A430A60226828
:104E3000536823F44053E1680B435360A269236A2B
:104E40001A4321688B6823F4306313438B60236813
:104E5000444A934214D0444A934227D002F58062D8
:104E600093421FD01023E069B0F5004F20D0082BEB
:104E700070D8DFE803F04A60486F636F6F6F6600B9
:104E80003A4B1B6B03F00303032B09D8DFE803F055
:104E90000204060C0023E6E70423E4E70823E2E724
:104EA0001023E0E70023DEE70223DCE70023DAE754
:104EB000082B49D8DFE803F0051F25482248484859
:104EC0000900FCF77DFA002840D06268530803EB24
:104ED0004003B3FBF2F3A3F110014FF6EF729142DE
:104EE00036D89AB222F00F02C3F34203134322686A
:104EF000D36000201BE0FCF779FAE4E7FCF756F9F1
:104F0000E1E71B48E1E71A4802E0FCF759FA18B359
:104F1000636800EB5300B0FBF3F0A0F110024FF612
:104F2000EF739A421AD8236880B2D8600020002319
:104F3000A366E36610BDFCF759FAE8E7FCF736F91B
:104F4000E5E74FF40040E3E70120F0E70020EEE75B
:104F50000120ECE70120EAE70020E8E70120E6E78E
:104F6000F369FFEF003801400044004000100240A8
:104F700000127A00436A13F0080F06D002685368E3
:104F800023F40043416B0B435360436A13F0010F5A
:104F900006D00268536823F40033816A0B435360E0
:104FA000436A13F0020F06D00268536823F480337B
:104FB000C16A0B435360436A13F0040F06D00268C2
:104FC000536823F48023016B0B435360436A13F04F
:104FD000100F06D00268936823F48053816B0B4353
:104FE0009360436A13F0200F06D00268936823F49D
:104FF0000053C16B0B439360436A13F0400F0AD018
:105000000268536823F48013016C0B435360036CF4
:10501000B3F5801F0BD0436A13F0800F06D00268EF
:10502000536823F40023816C0B435360704702687C
:10503000536823F4C003416C0B435360EBE72DE945
:10504000F84305460E4617469946DDF820802B6842
:10505000DC6936EA04040CBF01240024BC4236D1CA
:10506000B8F1FF3FF3D0FBF783FDA0EB090040450B
:1050700030D8B8F1000F2FD02B681A6812F0040F47
:10508000E5D0802EE3D0402EE1D0DA6912F0080F8F
:1050900011D1DA6912F4006FD9D04FF400621A62AC
:1050A0002846FFF78BFE2023C5F88430002385F8BF
:1050B000783003200CE008241C622846FFF77EFEAF
:1050C000C5F88440002385F87830012000E00020F6
:1050D000BDE8F8830320FBE70320F9E730B583B090
:1050E00004460023C0F88430FBF742FD05462268E1
:1050F000126812F0080F0FD123681B6813F0040F19
:1051000026D12023E367C4F8803000202066606643
:1051100084F8780003B030BD6FF07E4300930346FF
:1051200000224FF400112046FFF789FF0028E3D04A
:10513000226852E8003F23F0800342E80031002952
:10514000F6D12023E367002384F878300320E1E7D9
:105150006FF07E4300932B4600224FF480012046DF
:10516000FFF76DFF0028CCD0226852E8003F23F4FF
:10517000907342E800310029F6D1226802F1080359
:1051800053E8003F23F00103083242E800310029D0
:10519000F3D12023C4F88030002384F87830032032
:1051A000B8E768B310B50446C36F03B32423E367BD
:1051B0002268136823F001031360636AE3B9204691
:1051C000FFF726FE012811D02268536823F490438C
:1051D00053602268936823F02A039360226813685F
:1051E00043F0010313602046FFF778FF10BD80F8FD
:1051F0007830FFF7AFFDD9E72046FFF7BBFEDEE7CB
:105200000120704700B589B00023049305930693ED
:1052100007930193029303931548164A02601122E3
:105220004260836040F2E732C260036180238361A1
:10523000FBF782FB90B94FF48053049304A90C4808
:10524000FBF7B8FB68B900230193039301A9084851
:10525000FBF730FC40B909B05DF804FBFBF7E0F860
:10526000E9E7FBF7DDF8EEE7FBF7DAF8F3E700BF75
:10527000A81B00200004004002680E4B9A4200D098
:10528000704700B583B003F50333DA6942F00202D8
:10529000DA61DB6903F002030193019B002205211F
:1052A0001D20FCF7B7FB1D20FCF7C4FB03B05DF825
:1052B00004FB00BF00040040DFF834D0FCF7C8FB5B
:1052C0000C480D490D4A002302E0D458C450043361
:1052D000C4188C42F9D30A4A0A4C002301E0136037
:1052E0000432A242FBD3FAF7A5FFFBF7E1F8FEE791
:1052F000003000200000002028000020B0530008EB
:1053000028000020F41B0020FEE70000F8B500BFD5
:10531000F8BC08BC9E467047F8B500BFF8BC08BC96
:045320009E467047EE
:105324000102030405060708090A0B0C0D0E0F10F1
:1053340002030405060708090A0B0C0D0E0F1010D2
:10534400000000000102030400000000000000004F
:10535400010203040607080951495461736B0000F4
:1053640049444C4500000000546D72510000000097
:10537400546D7220537663005C53000800000000F3
:105384000000000000000000000000000002000017
:0C539400180000000000000000000000F5
:0853A000E4AEFF7F01000000F4
:0453A800DD03000819
:0453AC00B903000839
:1053B000010000001000000000127A00010000004F
:1053C00000000000000000000000000001000100DB
:0853D00000010100AAAAAAAA2B
:04000005080052B9E4
:00000001FF
